:020000020000FC
:100000000FEF0DBF08E00EBF00E200E800936100B3
:1000100040E048B94093C10004E0009361000FEF55
:100020000AB900E007B90FEF08B90FEF04B904D01F
:1000300021D0349B3FD0FBCF46B14370403029F0F4
:10004000413031F0423051F00895AA270DD0089583
:10005000AF3091F3A3953FD007D00895A03061F35E
:10006000AA9539D001D008958BB1807FAF708A2BCB
:100070008BB9089556B15C70503029F0543031F08E
:10008000583051F0089566270DD008956F3091F3E0
:10009000639521D007D00895603061F36A951BD035
:1000A00001D008958BB18F70962F9295907F892BF8
:1000B0008BB9089522272A2F260F20313CF435B121
:1000C000307F2F70322B35B92C9808952C9A35B18A
:1000D000307F35B9089516E924E634E600003A95F4
:0C00E000E9F72A95D1F71A95B9F70895B1
:00000001FF
